:020000041008E2
:10000000000008087DB1081069B6081045B4081052
:100010006DB6081071B6081075B608100000000023
:10002000000000000000000000000000FDB4081007
:1000300079B60810000000007DB6081081B60810DF
:10004000FFAB081025AC08104BAC081071AC0810C1
:1000500097AC0810BDAC0810E3AC081009AD08104F
:1000600085B6081089B608108DB6081091B608102C
:1000700095B6081099B608109DB60810A1B60810DC
:10008000C82E002E802E3DB1C82E002E802E91034A
:10009000802EBCB0802EA303C82E002E802E00B070
:1000A0005030212E59F51030212E6AF5802E3B0359
:1000B0000000000008190100220075000010001067
:1000C000D100B343802E00C1802E00C1802E00C11C
:1000D000802E00C1802E00C1802E00C1802E00C164
:1000E000802E00C1802E00C1802E00C1802E00C154
:1000F000802E00C1802E00C1802E00C1802E00C144
:10010000802E00C1802E00C1802E00C1802E00C133
:10011000802E00C1802E00C1802E00C1802E00C123
:10012000802E00C1802E00C1802E00C1802E00C113
:10013000802E00C1802E00C1802E00C1802E00C103
:10014000802E00C1802E00C1802E00C1802E00C1F3
:10015000802E00C1802E00C1802E00C1802E00C1E3
:10016000802E00C1802E00C1802E00C1E05F000003
:1001700000000100000000000000000000009200EC
:10018000000000000000000000000000000000006F
:1001900008190000880000000000000005E0AA38EF
:1001A00005E09030FA0096004B09110011000200A2
:1001B0002D01D47B3B01DB7A04003F7BCD6CC30473
:1001C0008509C304ECE60C460100270019009600DF
:1001D000A00001000C00F03C000101000300010040
:1001E0000E00000032000500EE060400C80000000A
:1001F0000400A805EE060004BC02B3008507000059
:1002000000000000000000000000000000000000EE
:100210000000B4000100B9000100980000000000D7
:100220000000000001008000040000000000000049
:1002300000000000000000000000000000000000BE
:1002400000000000000000000000000000000000AE
:10025000000000000000000000000000000000009E
:10026000000000000000000000000000000000008E
:1002700000000000000000000000802E00C1FD2DE5
:10028000DE00EB00DA00000CFF0F0004C0005BF59D
:10029000C9011EF280003FFF19F458F566F564F5B8
:1002A000C0F1F000E000CD01D301DB01FF7FFF01D1
:1002B000E40074F7F300FA00FF3FCA036C3856FEFF
:1002C00044FDBC02F90600FC1202AE0158FA9AFD88
:1002D0007705BB02960195017F01820189018701A3
:1002E00088018A018C018F018D0192019101DD004D
:1002F0009F017E01DB00B601706926D39C071F05B4
:100300009D000008BC0537FAA201AA01A101A801BD
:10031000A001A805B401B401CE00D000FC00C501C5
:10032000FFFBB10000380030FDF5FCF5CD01A00069
:100330005FFF0040FF0000806D0FEB007FFFC2F504
:1003400068F7B3F1670F5B0F610F800F58F75BF72A
:10035000830F8600720F850FC6F17F0F6CF700E0E8
:1003600000FFD1F5870F8A0FFF03F03F8B008E004F
:100370009000B9002DF5CAF5CB0120F20000000075
:10038000000000000000000000000000000000006D
:10039000000000000000000000000000000000005D
:1003A000000000000000000000000000000000004D
:1003B000000000000000000000000000000000003D
:1003C000000000000000000000000000000000002D
:1003D000000000000000000000000000000000001D
:1003E000000000000000000000000000000000000D
:1003F00000000000000000000000000000000000FD
:1004000000000000000000000000000000000000EC
:1004100000000000000000000000000000000000DC
:1004200000000000000000000000000000000000CC
:1004300000000000000000000000000000000000BC
:1004400000000000000000000000000000000000AC
:1004500000000000000000003050982ED70E5032EF
:10046000982EFA030030F07F002E002ED02E002EA2
:10047000018008A2FB2F982EBA03212E1900012E0D
:10048000EE0000B2072F012E190000B2032F015019
:100490000352982E07CC012EDD0000B2272F052E27
:1004A0008A000552982EC7C1032EE90040B2F07FA2
:1004B000082F012E190000B2042F0030212EE90070
:1004C000982EB4B1012E180000B2102F0550982EAE
:1004D0004DC30550982E5AC7982EF9B4982E54B291
:1004E000982E67B6982E17B21030212E7700012E65
:1004F000EF0000B2042F982E7AB70030212EEF00C3
:10050000012ED40004AE0B2F012EDD0000B2072F08
:100510000552982E8E0E00B2022F1030212E7D0033
:10052000012E7D000090902EF102012ED70000B226
:10053000042F982E2F0E0030212E7B00012E7B00E1
:1005400000B2122F012ED4000090022F982E1F0E01
:10055000092D982E810D012ED4000490022F5032C7
:10056000982EFA030030212E7B00012E7C0000B271
:10057000902E0903012E7C000131010800B2042FE6
:10058000982E47CB1030212E77008130012E7C0031
:10059000010800B2612F032E8900012ED40098BCFF
:1005A00098B805B20F58232F079009540030372F01
:1005B00015410441DCBE44BEDCBA2C0161000F567B
:1005C0004A0F0C2FD14294B8C1421130052E6AF760
:1005D0002CBD2FB980B20822982EC3B7212D6130CF
:1005E000232ED400982EC3B70030212E5AF5182D93
:1005F000E17F5030982EFA030F520750504270306E
:100600000D5442427E82E26F80B24242052F212E7B
:10061000D4001030982EC3B7032D6030212ED400A3
:10062000012ED4000690182F012E76000B5407528D
:10063000E07F982E7AC1E16F081A4030082F212EF2
:10064000D4002030982EAFB75032982EFA03052DE3
:10065000982E380E0030212ED4000030212E7C0040
:10066000182D012ED40003AA012F982E450E012E1D
:10067000D4003F8003A2012F002E022D982E5B0E86
:100680003030982ECEB70030212E7D005032982E7B
:10069000FA03012E770000B2242F982EF5CB032EFB
:1006A000D5001154010ABC848386212EC901E04083
:1006B0001352C4408240A8B9524243BE5342040A76
:1006C0005042E17FF0314140F26F25BD0808020A37
:1006D000D07F982EA8CF06BCD16FE26F080A804267
:1006E000982E58B70030212EEE00212E7700212EB3
:1006F000DD00802EF4011A242200802EEC0110501F
:10070000FB7F982EF3035750FB6F01307154114259
:10071000420EFC2FC02E0142F05F802E00C1FD2D45
:100720000100000000000000000000009A013403F6
:1007300000000000000000000000000000000000B9
:1007400000000000000000000000000000000000A9
:100750000000000000000000000000000000000099
:100760000000000000000000000000000000000089
:100770000000000000000000000000000000000079
:100780000000000000000000000000000000000069
:100790000000000000000000000000000000000059
:1007A00000002050E77FF67F06320F2E61F5FE092C
:1007B000C0B3042F17302F2EEF002D2E61F5F66FEA
:1007C000E76FE05FC82E2050E77FF67F46300F2EA0
:1007D000A4F1BE0980B3062F0D2ED40084AF022FE2
:1007E00016302D2E7B0086302D2E60F5F66FE76FCC
:1007F000E05FC82E012E77F709BC0FB800B2105089
:10080000FB7F10300B2F032E8A0096BC9FB840B29E
:10081000052F032E68F79EBC9FB840B2072F032E0A
:100820007E004190012F982EDC03032C0030212EF6
:100830007E00FB6FF05FB82E2050E07FFB7F002E24
:100840002750982E3BC82950982EA7C80150982EA3
:1008500055CCE16F2B50982EE0C9FB6F0030E05F64
:10086000212E7E00B82E7350013057541142420E93
:10087000FC2FB82E212E59F51030C02E212E4AF112
:100880009050F77FE67FD57FC47FB37FA17F907FB5
:10089000827F7B7F982E35B700B2902E97B0032EC3
:1008A0008F00072E9100052EB1003FBA9FB8012E90
:1008B000B100A3BD4C0A052EB10004BEBFB9CB0ADE
:1008C0004FBA22BD012EB300DC0A2FB9032EB800A7
:1008D0000ABE9A0ACFB99BBC012E97009FB8930A13
:1008E0000FBC910A0FB8900A252E1800052EC1F5ED
:1008F0002EBD2EB9012E190031308A040090072F29
:10090000012ED40004A2032F012E180000B20C2FD8
:1009100019500552982E4DB7052E78008090103052
:10092000012F212E7800252EDD00982E3EB700B233
:1009300002300130042F012E190000B2002F2130A7
:10094000012EEA00081A0E2F232EEA0033301B5026
:100950000B090140175646BE4B084C0A01420A805B
:1009600015520142002E012E180000B21F2F032E37
:10097000C0F5F030480847AA7430072E7A0061228B
:100980004B1A052F072E66F5BFBDBFB9C0900B2FC0
:100990001D562B30D242DB420104C24204BDFE8010
:1009A0008184232E7A0002420232252E62F5052E22
:1009B000D6008184252ED6000231252E60F5052E25
:1009C0008A000B50900880B20B2F052ECAF5F03E1E
:1009D0009008252ECAF5052E59F5E03F9008252EE2
:1009E00059F5906FA16FB36FC46FD56FE66FF76F56
:1009F0007B6F826F705FC82EC050907FE57FD47F81
:100A0000C37FB17FA27F877FF67F7B7F002E012E81
:100A100060F5607F982E35B70230636F1552507FB6
:100A2000627F5A2C02321A0900B3142F00B2032F2E
:100A3000092E180000910C2F437F982E97B71F5056
:100A4000028A02320430252E64F51552506F436F2E
:100A50004443252E60F5D908C0B2362F982E3EB7F4
:100A600000B2062F012E190000B2022F506F009025
:100A70000A2F012E79000090192F1030212E7900B5
:100A80000030982EDC03132D012EC3F50CBC0FB8DB
:100A90001230100403B0262521500352982E4DB772
:100AA0001030212EEE000230607F252E7900606F1D
:100AB0000090052F0030212EEA001550212E64F5FC
:100AC0001552232E60F50232506F0090022F033032
:100AD000272E7800072E60F51A090091A32F190917
:100AE0000091A02F906FA26FB16FC36FD46FE56FAD
:100AF0007B6FF66F876F405FC82EC050E77FF67F31
:100B000026300F2E61F52F2E7C000F2E7C00BE09A3
:100B1000A27F807F80B3D57FC47FB37F917F7B7FAF
:100B20000B2F23501A251240427F74821240527FAD
:100B3000002E0040607F982E6AD68130012E7C0006
:100B4000010800B2422F032E8900012E890097BCB4
:100B500006BC9FB80FB80090232ED800103001308B
:100B60002A2F032ED40044B2052F47B200302D2F78
:100B7000212E7C002B2D032EFDF59EBC9FB84090AE
:100B8000142F032EFCF599BC9FB840900E2F032E16
:100B900049F125544A084090082F982E35B700B2E5
:100BA0001030032F5030212ED400102D982EAFB7C7
:100BB0000030212E7C000A2D052E69F72DBD2FB99E
:100BC00080B2012F212E7D00232E7C00E031212ECA
:100BD00061F5F66FE76F806FA26FB36FC46FD56F6B
:100BE0007B6F916F405FC82E60510A253688F47F75
:100BF000EB7F0032315232301330982E15CB0A255C
:100C00003384D27F433005502D52982E95C1D26F38
:100C10002752982ED7C72A25B086C07FD37FAF84AE
:100C20002950F16F982E4DC82A25AE8AAA88F26EF7
:100C30002B50C16FD36FF47F982EB6C8E06E00B210
:100C4000322F33548386F16FC37F04303030F47F0A
:100C5000D07FB27FE330C56F56404541280803146A
:100C60000EB408BC8240100A2F542605917F4428F8
:100C7000A37F982ED9C008B933305309C16FD36F01
:100C8000F46F831747406C15B26FBE09750B904225
:100C90004542510E32BC0289A16F7E86F47FD07F1F
:100CA000B27F0430916FD62FEB6FA05EB82E032E6B
:100CB00097001BBC60509FBC0CB8F07F40B2EB7F2C
:100CC0002B2F032E7F004140012EC800011A112F47
:100CD0003758232EC8001041A07F38810141D07FB2
:100CE000B17F982E64CFD06F0780A16F1142002E84
:100CF000B16F01421130012EFC0000A80330CB225D
:100D00004A25012E7F003C8935520554982EC4CEC9
:100D1000C16FF06F982E95CF042D0130F06F982E93
:100D200095CFEB6FA05FB82E032EB3000232F030E8
:100D3000033130508A080808CB08E07F80B2F37F87
:100D4000DB7F252F032ECA004190042F0130232E74
:100D5000CA00982E3F03C0B2052F032EDA000030E0
:100D60004104232EDA00982E92B21025F06F00B2C3
:100D7000052F012EDA0002301004212EDA0040B2D5
:100D8000012F232EC801DB6FE06FD05F802E95CF3F
:100D90000130E06F982E95CF1130232ECA00DB6F03
:100DA000D05FB82ED0500A2533845550D27FE27FD1
:100DB000038CC07FBB7F0030055A39545141A57F59
:100DC000967F807F982ED9C00530F57F2025916FC2
:100DD0003B583D5C3B56982E67CCC16FD56F524057
:100DE0005043C17FD57F1025982EFEC91025982E1F
:100DF00074C0866F3028926F828CA56F6F52690E17
:100E00003954DB2F19A01530032F0030212E81011A
:100E10000A2D012E810105284236212E8101020E64
:100E2000012F982EF303575012300140982EFEC91F
:100E3000516F0B5C8E0E3B6F57580230212E95017F
:100E4000456F2A8DD27FCB7F132F02303F50D27F48
:100E5000A80E0E2FC06F535402005154420E103092
:100E600059520230012F002E032D504242421230BF
:100E7000D27F80B2032F0030212E8001122D012E4F
:100E8000C9000280052E8001113091280040252ED6
:100E90008001100E052F012E7F010190012F982E49
:100EA000F303002EA0410190A67F902EE3B4012E03
:100EB000950100A8902EE3B45B549580824080B2E7
:100EC00002402D8C3F52967F902EC2B3290E762F72
:100ED000012EC900004081284552B330982E0FCA18
:100EE0005D54807F002EA140727F82808240607FAF
:100EF000982EFEC91025982E74C0626F0530874069
:100F0000C0910430052F052E830180B21430002FCC
:100F10000430052EC900736F8140E2406904110F4F
:100F2000E1401630FE29CB40022F836F830F222F22
:100F30004756130F1230772F4954420E1230732F39
:100F400000910A2F012E8B0119A802306C2F6350DB
:100F5000002E17420542682C12300B25080F503026
:100F6000022F212E8301032D4030212E83012B2EB1
:100F700085015A2C123000912B25042F635002302A
:100F80001742172C0242982EFEC91025982E74C0C5
:100F9000052EC90081845B308240372E8301020E0A
:100FA000072F5F52403062404140910E012F212EA9
:100FB000830105302B2E85011230362C1630152575
:100FC000817F982EFEC91025982E74C019A2163064
:100FD000152F052E9701806F820E052F012E860199
:100FE0000628212E86010B2D032E87015F544E28E3
:100FF0009142002E8240900E012F212E8801023056
:10100000132C0530C06F081CA80F163005305B503C
:10101000092F02802D2E820105420580002E0242FA
:101020003E80002E06420230906F3E88014004410F
:101030004C280142078010252440004000A8F522DA
:10104000232944427A827E884340044100ABF52341
:10105000DF284342D9A0142F0090022FD26F81B213
:10106000052F6354062890428542092C02305B50BC
:101070000380292E7E012B2E8201054212302B2E59
:1010800083014582002E40407A8202A0082F6350DF
:101090003B30154205423780372E7E010542123023
:1010A000012EC900028C404084417A8C040F032F2A
:1010B000012E8B0119A4042F2B2E8201982EF303ED
:1010C000123081906152082F654265424380398415
:1010D00082880542454285420543002E80410090AA
:1010E000902EE1B46554C16F804000B243586950FE
:1010F000442F555CB7878C0F0D2E9601C440362FB8
:1011000041568B0E2A2F0B52A10E0A2F052E8F014E
:101110001425982EFEC94B54020F695005306554B2
:10112000152F032E8E014D5C8E0F3A2F052E8F0149
:10113000982EFEC94F54820F053069506554302FE8
:101140006D521530428C454204302B2C84436B5237
:10115000428C002E85431530242C45428E0F202FC3
:101160000D2E8E01B10E1C2F232E8E011A2D0E0E68
:10117000172FA10F152F232E8D01132D982E74C01C
:101180004354C20E0A2F655004800B3006820B4276
:10119000798041401230252E8C0101420530695082
:1011A000655484824384BE8C8440864126299442BF
:1011B000BE8ED57F19A143400B2E8C018440C741C0
:1011C0005D29272945428442C27F012FC0B31D2FCC
:1011D000052E940199A0012F80B3132F80B3182FEF
:1011E000C0B3162F12400140927F982E74C0926FA8
:1011F000100F2030032F1030212E7E010A2D212EBA
:101200007E01072D2030212E7E01032D1030212E4E
:101210007E01C26F012EC900BC8402808240004062
:10122000900ED56F022F1530982EF30341910530A3
:10123000072F67503D802B2E8F0105420480002E22
:101240000542022C00300030A26F988A864080A7A9
:10125000052F982EF303C030212E950106251A255F
:10126000E26F768296405643510EFB2FBB6F305F84
:10127000B82E012EB8000131410840B22050F230A2
:101280000208FB7F0130102F052ECC008190E07FFB
:10129000032F232ECC00982E55B6982E1DB5102561
:1012A000FB6FE06FE05F802E95CF982E95CF1030CA
:1012B000212ECC00FB6FE05FB82E00510558EB7F6C
:1012C0002A2589526F5A895013410640B3011642AC
:1012D000CB160640F3021342650EF52F054014307D
:1012E0002C29044208A10030902E52B6B388B08A4F
:1012F000B684A47FC47FB57FD57F927F73300430DE
:10130000554042408A17F3086B01900253B84B8254
:10131000ADBE717F450A0954847F982ED9C0A36F52
:101320007B54D042A37FF27F607F2025716F755A76
:101330007758795C7556982E67CCB16F626F5042C2
:10134000B17FB3301025982E0FCA846F2029716F9A
:10135000926FA56F76826A0E73300030D02FD26FF5
:10136000D17FB47F982E2BB715BD0BB8020AC26F80
:10137000C07F982E2BB715BD0BB8420AC06F081757
:1013800041188916E118D018A17F27251625982E17
:1013900079C08B54907FB330824080900D2F7D5266
:1013A000926F982E0FCAB26F900E062F8B5014308A
:1013B000426F516F144212420142002E316F982E3B
:1013C00074C0416F807F982E74C0826F10044352A6
:1013D000010F052ECB0000300430212F516F4358F0
:1013E0008C0E04301C2F8588416F04418C0F043013
:1013F000162F8488002E044104058C0E04300F2F14
:101400008288316F044104058C0E0430082F8388D4
:10141000002E04418C0F0430022F212EAD01143018
:101420000091142F032EA10141900E2F032EAD0128
:1014300014304C28232EAD0146A0062F81848D52F6
:1014400048828240212EA10142425C2C0230052EAE
:10145000AA0180B20230552F032EA901926FB3303A
:10146000982E0FCAB26F900F003002304A2FA26F31
:10147000875291008552510E022F002E432C0230CC
:10148000C26F7F52910E02303C2F516F8154982EC3
:10149000FEC91025B3302125982E0FCA326FC07FA8
:1014A000B3301225982E0FCA426FB07FB330122589
:1014B000982E0FCAB26F90288352982EFEC9C26F21
:1014C000900F003002301D2F052EA10180B2123086
:1014D0000F2F426F032EAB01910E0230122F526F6D
:1014E000032EAC01910F02300C2F212EAA010A2CE1
:1014F0001230032ECB008D58088941401143004320
:10150000252EA101D46F8F5200433A89002E10433B
:101510001043610EFB2F032EA001111A022F02258A
:10152000212EA001EB6F005FB82E915210300230D7
:10153000955652424B0EFC2F8D5488829356804212
:101540005342404242868354C02EC242002EA352D0
:101550000051524047401A25012E97008FBE7286D7
:10156000FB7F0B307CBFA5501008DFBA7088F8BF36
:10157000CB42D37F6CBBFCBBC50A907F1B7F0B4368
:10158000C0B2E57FB77FA67FC47F902E1CB7072E21
:10159000D200C0B20B2F9752012ECD00827F982E21
:1015A000BBCC0B30372ED200826F906F1A2500B261
:1015B0008B7F142FA6BD25BDB6B92FB980B2D4B08C
:1015C0000C2F99549B560B300B2EB100A1589B4207
:1015D000DB426C092B2EB1008B42CB42867F738499
:1015E000A756C30839520550727F637F982EC2C038
:1015F000E16F626FD10A012ECD00D56FC46F726F9B
:1016000097529D5C982E06CD236F906F9952C0B271
:1016100004BD5440AFB94540E17F0230062FC0B24F
:101620000230032F9B5C12309443854303BF6FBB92
:1016300080B3202F066F2601166F6E034542C090BF
:10164000292ECE009B52142F9B5C002E9341864185
:10165000E304AE0780AB042F80910A2F866F730FCF
:10166000072F836FC0B2042F544245421230042C1E
:101670001130022C1130113002BC0FB8D27F00B2F1
:101680000A2F012EFC00052EC701101A022F212E51
:10169000C701032D022C01300130B06F982E95CF79
:1016A000D16FA06F982E95CFE26F9F52012ECE0082
:1016B000824050420C2C42421130232ED200013085
:1016C000B06F982E95CFA06F0130982E95CF002E39
:1016D000FB6F005FB82E83860130003094402418E1
:1016E0000600530E4F02F92FB82EA952002E60406B
:1016F00041400DBC98BCC02E010A0FB8AB52533C00
:10170000524040404B00821626B901B841401008B3
:1017100097B80108C02E11300108438625400440C7
:10172000D8BE2C0B2211544203804B0EF62FB82E3C
:101730009F501050AD52052ED300FB7F002E13405A
:101740009342410EFB2F982EA5B7982E87CF012EDE
:10175000D90000B2FB6F0B2F012E69F7B13F0108D2
:101760000130F05F232ED900212E69F7802E7AB741
:10177000F05FB82E012EC0F8032EFCF51554AF56BD
:1017800082080B2E69F7CB0AB1588090DDBE4C0859
:101790005FB959228090072F0334C308F23A0A0830
:1017A0000235C0904A0A4822C02E232EFCF5105064
:1017B000FB7F982E56C7982E49C31030FB6FF05F01
:1017C000212ECC00212ECA00B82E032ED30016B82D
:1017D00002344A0C212E2DF5C02E232ED30003BC3B
:1017E000212ED500032ED50040B21030212E7700D7
:1017F0000130052F052ED8008090012F232E6FF584
:10180000C02E212ED90011308108012E6AF7713FB8
:1018100023BD0108020AC02E212E6AF730250030B0
:10182000212E5AF51050212E7B00212E7C00FB7FAB
:10183000982EC3B74030212ED400FB6FF05F0325F4
:10184000802EAFB7802E00C1802E00C1802E00C137
:10185000802E00C1802E00C1802E00C1802E00C1CC
:10186000802E00C1802E00C1802E00C1802E00C1BC
:10187000802E00C1802E00C1802E00C1802E00C1AC
:10188000012E5DF708BC80AC0EBB022F0030410476
:101890008206C0A40030112F40A9032F40910D2FC4
:1018A00000A70B2F80B3B358022F90A1261320233B
:1018B00080901030012FCC0E002F0030B82EB55084
:1018C000180808BC88B60D17C6BD56BCB758DABA9A
:1018D00004011D0A1050053032254503FB7FF63008
:1018E0002125982E37CA16B59ABC06B880A8410A99
:1018F0000E2F8090022F2D50480F092FBFA0042FCC
:10190000BF90062FB754CA0F032F002E022CB752D8
:101910002D52F233982ED9C0FB6FF137C02E01083B
:10192000F05FBF56B954D040C4400B2EFDF3BF52F8
:101930009042944295420530C1500F8806400441C0
:101940009642C54248BE73300D2ED8004FBA84422D
:10195000034281B3022F2B2E6FF5062D052E77F74C
:10196000BD569308252E77F7BB54252EC2F5072EBA
:10197000FDF34230B433DA0A4C00272EFDF3434026
:10198000D43FDC084342002E002E43402430DC0AC2
:1019900043420480032EFDF34A0A232EFDF36134F3
:1019A000C02E0142002E60501A257A86E07FF37F18
:1019B0000325C3524184DB7F3330982E16C21A258B
:1019C0007D82F06FE26F32251640944026018540FB
:1019D0008E17C4426E039542410EF42FDB6FA05F59
:1019E000B82EB051FB7F982EE80D5A25982E0F0E79
:1019F000CB583287C47F65896B8DC55A657FE17F7F
:101A0000837FA67F747FD07FB67F947F1730C752C5
:101A1000C954517F002E856F427F002E5141458170
:101A2000424113403B8A00404B04D006C0AC857F46
:101A3000022F02305104D306418405305D02C916DD
:101A4000DF08D3008D02AFBCB1B9590A656F1143ED
:101A5000A1B4524153410143347F657F2631E56F84
:101A6000D46F982E37CA326F756F83404241237FFF
:101A7000127FF63040255125982E37CA146F200565
:101A8000706F256F6907A26F316F0B3004429B4264
:101A90008B425542327F40A9C36F717F0230D040E4
:101AA000C37F032F4091152F00A7132F00A4112FE0
:101AB00084BD982E79CA556FB75454418200F33FC4
:101AC0004541CB02F630982E37CA356FA46F41439B
:101AD000032C0043A46F356F1730426F516F934052
:101AE00042820041C3000343517F002E9440414194
:101AF0004C02C46FD156630E746F5143A57F8A2F79
:101B0000092ED80001B3212FCB58906F1341B66F27
:101B1000E47F002E9141144092411540172E6FF53D
:101B2000B67FD07FCB7F982E000C0715C26F140BA9
:101B3000292E6FF5C3A3C18FE46FD06FE62F143049
:101B4000052E6FF5140B292E6FF5182DCD56043286
:101B5000B56F1C0151415241C340B57FE47F982EBF
:101B60001F0CE46F218700430432CF545A0EEF2F2D
:101B70001554092E77F7220B292E77F7FB6F505E4D
:101B8000B82E1050012ED40000B2FB7F512F01B2AD
:101B9000482F02B2422F0390562FD75279804240ED
:101BA000818400404242982E930CD954D750A140D2
:101BB00098BD82403E82DA0A44408B16E3005342CD
:101BC000002E43409A025242002E414015544A0EC4
:101BD0003A2F3A8200304140212E850F40B20A2F21
:101BE000982EB10C982E450E982E5B0EFB6FF05F71
:101BF0000030802ECEB7DD52D35442424F84733032
:101C0000DB5283421B306B422330272ED700372E06
:101C1000D400212ED6007A84172C42423030212E57
:101C2000D400122D21300030232ED400212E7BF73A
:101C30000B2D1730982E510CD5500C8272302F2E50
:101C4000D400252E7BF74042002EFB6FF05FB82EAC
:101C500070500A253986FB7FE1326230982EC2C46B
:101C6000B556A56FAB08916F4B08DF56C46F2309BB
:101C70004DBA93BC8C0BD16F0B09CB52E15E56422F
:101C8000AF094DBA23BD940AE56F68BBEB08BDB937
:101C900063BEFB6F5242E30AC02E4342905FD150B5
:101CA000032E25F3134000409BBC9BB408BDB8B97C
:101CB00098BCDA0A08B68916C02E190062021050C4
:101CC000FB7F982E810D012ED40031300804FB6F6C
:101CD0000130F05F232ED600212ED700B82E012E22
:101CE000D700032ED600480E012F802E1F0EB82ECF
:101CF000E350213401428230C132252E62F50100C9
:101D0000223001404A0A0142B82EE354F03B83409E
:101D1000D808E5528342003083305042C432272E27
:101D200064F5940050424042D33F84407D82E308F2
:101D300040428342B82EDD52003040427C86B95288
:101D4000092E700FBF54C442D3865440554094426C
:101D50008542212ED7004240252EFDF3C0427E82CF
:101D6000052E7D0080B2142F052E890027BD2FB9C6
:101D70008090022F212E6FF50C2D072E710F14303D
:101D80001C09052E77F7BD5647BE9308940A252EE9
:101D900077F7E75450424A0EFC2FB82E50500230CD
:101DA0004386E550FB7FE37FD27FC07FB17F002E6B
:101DB000414000404804982E74C01EAAD36F1430CE
:101DC000B16FE322C06F5240E46F4C0E1242D37FDA
:101DD000EB2F032E860F40901130032F232E860FFA
:101DE000022C0030D06FFB6FB05FB82E4050F17FF7
:101DF0000A253C86EB7F41332230982EC2C4D36F34
:101E0000F430DC094758C26F9409EB586ABBDC0810
:101E1000B4B9B1BDE95A950821BDF6BF770B51BEE3
:101E2000F16FEB6F52425442C02E4342C05F50509C
:101E3000F55031301142FB7F7B300B421130028074
:101E4000233301420300072E8003052ED3002352C3
:101E5000E27FD37FC07F982EB60ED16F080A1A2575
:101E60007B86D07F01331230982EC2C4D16F080A0E
:101E700000B20D2FE36F012E80035130C786232E51
:101E800021F208BCC042982EA5B7002E002ED02EFD
:101E9000B06F0BB8032E1B00081AB07F7030042FF0
:101EA000212E21F2002E002ED02E982E6DC0982EBD
:101EB0005DC0ED50982E44CBEF50982E46C3F150A4
:101EC000982E53C73550982E64CF1030982EDC03CF
:101ED0002026C06F02311242AB330B4237800130F3
:101EE0000142F337F752FB504440A20A42428B3181
:101EF000092E5EF7F954E30883421B4223334B005B
:101F0000BC840B40333083420B42E07FD17F982E5C
:101F100058B7D16F803040420330E06FF354043043
:101F2000002E002E0189620EFA2F43421130FB6F02
:101F3000C02E0142B05FC14A00006D570000778E8D
:101F40000000E0FFFFFFD3FFFFFFE5FFFFFFEEE133
:101F5000FFFF7C13000046E6FFFF000000000000CA
:101F60000000000000000000000000000000000071
:101F70000000000000000000000000000000000061
:101F80000000000000000000000000000000000051
:101F900000000000802E00C1802E00C1802E00C1F4
:101FA000802E00C1802E00C1802E00C1802E00C175
:101FB000802E00C1802E00C1802E00C1802E00C165
:101FC000802E00C1802E00C1802E00C1802E00C155
:101FD000802E00C1802E00C1802E00C1802E00C145
:101FE000802E00C1802E00C1802E00C1802E00C135
:101FF000802E00C1802E00C1802E00C1802E00C125
:10200000802E00C1802E00C1802E00C1802E00C114
:10201000802E00C1802E00C1802E00C1802E00C104
:10202000802E00C1802E00C1802E00C1802E00C1F4
:10203000802E00C1802E00C1802E00C1802E00C1E4
:10204000802E00C1802E00C1802E00C1802E00C1D4
:10205000802E00C1802E00C1802E00C1802E00C1C4
:10206000802E00C1802E00C1802E00C1802E00C1B4
:10207000802E00C1802E00C1802E00C1802E00C1A4
:1020800040F0200070472DE9F14FB0B09146049127
:102090000DF142013A9A21914A7000210DF1950209
:1020A0001E460D912F920BE019F8011B0498309AEF
:1020B00090470028049000F063850D98401C0D9017
:1020C00099F8000050B12528EED100210022079197
:1020D000089209910A920B910C9204E00D9800F07D
:1020E00051BD41F0010119F8010F2028F9D0232832
:1020F0000CD02B2804D02D2805D0302809D00BE097
:1021000041F00201EFE741F00401ECE741F0080182
:10211000E9E741F01001E6E72A280DD1326852F8CC
:10212000040B326000280F9003D540420F9041F01D
:10213000040109F1010914E00F92DFF8A83B0AE05D
:102140000F98984205DA00EB800402EB4402303A23
:102150000F9209F1010999F80020A2F130000A2834
:10216000EED399F800002E2803D04FF0FF320E92E4
:1021700027E019F8010F2A2807D1306850F8042BFE
:1021800030600E9209F101091BE02D280CBF09F106
:102190000109002000220E92DFF8484B0BE040B905
:1021A0000E9AA24205DA02EB820503EB4503303BAF
:1021B0000E9309F1010999F80030A3F130020A2ABF
:1021C000EDD3ADF840100FF6603099F8001000F034
:1021D0001FFE08B119F8010B8DF842009DF842006E
:1021E000682805D199F8000068280CD1622106E022
:1021F0006C2804BF99F800006C2804D171218DF877
:10220000421009F1010912A9069119F8012B8DF864
:1022100000201746B7F1250026D02038022840F2CA
:102220007981133800F0EC830B3800F07684401E7F
:1022300000F02B84401E022840F26C81001F00F049
:102240002484401F00F0EC80401E00F0D983401E23
:1022500000F0D780C01E0CD0801E00F0D183C01EBD
:1022600000F0CE8300F062BC01220792252100F02D
:102270005ABC306850F8044B3060002C059440F094
:10228000AD8021994878002800F0A4804FF0FF34F9
:102290000FF6CC2000F0CCFD241A40F0718400F041
:1022A00053BC01236A4602A9384600F025FD0028E8
:1022B00040F06684641EF4D13097079C0DF1480805
:1022C00074B1309F18F8011B0498B8470028049097
:1022D00000F056840D98401C641E0D90F2D130978A
:1022E0000A9C3021002C8DF800100CDD309F01235A
:1022F0006A4602A9384600F0FFFC002840F04084FE
:10230000641EF4D13097DDF81480089C74B1309FBE
:1023100018F8011B0498B8470028049000F0308496
:102320000D98401C641E0D90F2D130970B9C30210B
:10233000002C8DF800100CDD309F01236A4602A9A5
:10234000384600F0D9FC002840F01A84641EF4D10D
:10235000309705980899099C00EB010874B1309FEB
:1023600018F8011B0498B8470028049000F008846E
:102370000D98401C641E0D90F2D130970C9C3021BA
:10238000002C8DF800100CDD309F01236A4602A955
:10239000384600F0B1FC002840F0F283641EF4D10E
:1023A00030979DF8400041077FF58AAE2020002D30
:1023B0008DF800007FF784AE309C01236A4602A9A5
:1023C000204600F099FC002840F0DA836D1EF4D11D
:1023D000309475E60FF6A4100590B5E30E9D002D20
:1023E00004D5204600F044FD044608E02A460021BA
:1023F000204600F059FD002814BF041B2C46089409
:10240000A2E3316851F8040B316020F00004002190
:1024100021F0FF35CDE9024512AB0593782178E331
:102420002199487820B14FF0FF340FF6041031E7BE
:102430009DF84200622853D0682815D06A2836D00B
:102440006C2806D071283CD0742825D07A2818D062
:1024500053E0316851F8040B3160002857D14FF038
:10246000FF340FF6E40015E7316851F8040B3160D2
:1024700020B94FF0FF340FF6D0000BE70D99018023
:1024800062E3316851F8040B316000283FD14FF00E
:10249000FF340FF6B400FDE6316851F8040B3160EB
:1024A000002834D14FF0FF340FF69C00F2E631687B
:1024B00051F8040B316070B94FF0FF340FF688000B
:1024C000E8E6316851F8040B316020B94FF0FF3471
:1024D0000FF67400DEE60D9AD317C0E9002333E34C
:1024E000316851F8040B316020B94FF0FF340FF61A
:1024F0005800CFE60D99017026E3316851F8040BBE
:10250000316020B94FF0FF340FF63C00C2E60D9960
:10251000016019E39DF842004C2807BF3168CA1DCD
:102520003068C21D22F007023260D2E90001083291
:102530003260CDE90201C80F02D007982D210AE0D0
:10254000BDF84000810702D507982B2103E0C007A2
:1025500005D50798202112AA1154401C079012A8F3
:1025600007994518DDE90201CDE92201059525AC61
:102570000E98002848BF062007D402BF9DF800002F
:1025800040F02000672801D101200E90DDE9020112
:102590004A0042EAD07253154FEAE27B4FF0FF3215
:1025A000934508BF93420FD1090341EA105100033C
:1025B000002908BF002807D0613F03201A2F089088
:1025C00017D30FF2C0710FE0DDE902014A00521586
:1025D00012F1010F10D108030ED1613F03201A2F11
:1025E00008901AD30FF2A4710322284600F088FC49
:1025F000AAE20FF28C71F7E7DDE9020101AA00F00F
:10260000D3FCCDE9020120F0000231F0004308BF05
:10261000002A05D100270025B7E00FF26C71E3E72F
:102620000199DFF8C42647F29750414391FBF2F23B
:102630000192DDE92245C2F10702002A25F000459A
:1026400004DD2046294600F02AFB0BE05242002020
:10265000DFF8981600F023FB02460B462046294679
:1026600000F0DAFC04469DF8000040F0200A0D4618
:10267000BAF1660F06BF019800F10A084FF006088C
:102680000E988044B8F1140FC8BF4FF014083020E2
:102690008DF894000DF19507B8F1000F36DD204656
:1026A000294600F0DDFD01460A4607F10803042033
:1026B0000A27B2FBF7F707EB870EA2EB4E02303288
:1026C00003F8012C0A22B7FBF2F202EB820EA7EB11
:1026D0004E073037401E03F8027DE9D1A8F1080803
:1026E000B8F1000F03F10807D6DD084600F0CAFD77
:1026F00002460B462046294600F090FE0022DFF8F5
:10270000F03500F0FDFE04460D46C8E72F983F1A4D
:102710000DF1950404E00198401E7F1E0190641C99
:1027200020783028F7D0BAF1660F02D10198401C0A
:1027300004E0BAF1650F0CBF012000200E9940188B
:102740008742B8BF781E00281DD4B84204DA215C45
:102750003429C8BF392100DC30210246631E9D1890
:1027600000E0401E15F80179521E8F42F9D0392938
:1027700002D1A15C491CA154002A04D50199491C2D
:102780001C46401C01910746019D9DF80080DDF824
:1027900038A038B2002802DC01270FF2F45448F0C8
:1027A0002000662808BF6D1C17D067280FFA85FB2C
:1027B0005AD11BF1040F43DBD34541DA9DF84000A9
:1027C0006D1C010703D438B25045D8BF824628B2E9
:1027D000BAEB000A48BF4FF0000A0FFA85F8B8F1CB
:1027E000000F00F3AA800898411C08913022059937
:1027F0000A54BAF1000F03DC9DF84000010705D52B
:102800000898411C08912E2205990A541AEB080FCA
:10281000B8BFCAF100052DB26842AA443AB20B9083
:102820009245B8BF5746059B08983FB209973A466C
:102830002146184400F064FBAAEB07000C90C8E0A6
:1028400038B2504504DA9DF840100A0758BF824656
:10285000BAF1010A48BF4FF0000AB8F1670F0CBF88
:102860004FF065084FF045080898411C0891BAF1EF
:10287000000F059914F8012B0A5403DC9DF8400061
:1028800001071BD50898411C08912E2205990A546E
:10289000BAF1000F12DD7F1E38B28245B8BF57462D
:1028A0000598089B3AB22146184400F029FB089885
:1028B0003FB238180890AAEB07000B9005980899CA
:1028C0000844BBF1000F80F8008003D42B22427033
:1028D000811C04E02D2141705D46811C6D42002069
:1028E00022AA0A2409E02B4693FBF4F505EB8507A1
:1028F000A3EB470302F8013B401C2DB2002DF2DC94
:10290000012806DC48F02002652A04BF302201F8C5
:10291000012B002822AA08D1302001F8010B06E083
:10292000401E135C303301F8013B0028F8DC059AA7
:1029300008981044091A09914BE038B229B288422C
:102940001DDA0598089B3AB22146184400F0D8FADF
:1029500008993FB279180891A8EB0700BAF1000F67
:102960000B9003DC9DF84000020705D5059A2E2048
:1029700050540999491C0991CDF830A029E00598D7
:10298000089B2AB22146184400F0BAFA08987F1B27
:102990004044BAF1000F089003DC9DF840100A078C
:1029A00004D5411C08912E2205990A5438B282455B
:1029B000B8BF57460598089B3AB204EB0801184483
:1029C00000F09EFA08983FB23818AAEB0707089063
:1029D0000B979DF8400000F01400102840F0B480E0
:1029E000079A08980B99821809988A1882180C98E7
:1029F0000F998018884280F2A780081A0A90A3E0F5
:102A00009DF84200622808D068280CD06A2810D0AF
:102A10006C2818D071280CD015E0316851F8040BDF
:102A20003160C0B213E0316851F8040B316080B2FC
:102A30000DE03068C21D22F007023260D2E90001C9
:102A40000832326004E0316851F8040B3160002133
:102A5000CDE902019DF84000010754D5DDE90223CC
:102A6000002B08BF002A4ED09DF8000040F0200047
:102A7000782848D1079812A930220A54401C431CD8
:102A80009DF8002007930A543DE09DF8420062281B
:102A900008D068280CD06A2810D06C2818D071286B
:102AA0000CD015E0316851F8040B316040B213E0EE
:102AB000316851F8040B316000B20DE03068C21D7E
:102AC00022F007023260D2E900010832326004E0ED
:102AD000316851F8040B3160C117CDE902010029BA
:102AE00002D507982D210AE0BDF84000810702D5E4
:102AF00007982B2103E0C00705D50798202112AACB
:102B00001154401C079012A80799014405919DF8A3
:102B1000001002A800F039F816E001200790306894
:102B200050F8041B30608DF848100DE0012125227B
:102B30009DF8000007918DF8482028B19DF800000D
:102B40008DF84900022107910F9D07990A986D1A87
:102B500008992D1A0B986D1A09992D1A0C986D1A4F
:102B60009DF840102D1A48073FF5A7AB2021002DF6
:102B70008DF800107FF7A1AB309F2C46FFF791BB7B
:102B80004FF0FF3031B0BDE8F08F2DE9FC4707462C
:102B90008A463C6950466F2808BF082505D0FFF7D4
:102BA0006FFA782814BF0A251025D7E900013C26C2
:102BB00080468946BAF1640F18BFBAF1690F05D192
:102BC000002903D5D8F1000869EB4909B9F1000FD4
:102BD00008BFB8F1000F0CD1386B50B9082D3AD1AD
:102BE00097F83800010736D530223B2684F83B2081
:102BF00031E08DF800A0404649462A46EB1700F028
:102C000055FD3032D0B2761E3A2801960EDAA25522
:102C1000404649462A46EB1700F048FD80465FEAE9
:102C2000010908BFB8F1000F05D108E09DF80000C8
:102C30001218513AEBE7F868A1198842DBD3082D46
:102C400009D197F83800010705D5A05D302802D0DA
:102C5000761E3020A055C6F13C03BB61A119F96076
:102C6000386B834208DAC31A3B624FF6EF70398F34
:102C700001403987BDE8F38700280ED597F8380062
:102C800000F01400102808D17A6B7969386A521A5A
:102C9000121AD21A002AC8BF3A62BDE8F3872DE99A
:102CA000D04306460F4614464FF00008DFF8449024
:102CB00012E0E00707D542464B463046394600F061
:102CC0001FFC06460F464046494642464B4600F02A
:102CD00017FC641080468946002CEAD130463946FC
:102CE000BDE8D083CBCCCC0CA08601000000F03F27
:102CF00084D7974100002440F8B505460E46174694
:102D00001C4600205CB117F8011BB068A847B060F2
:102D100030B1F06A401CF0620020641EF3D1F2BDB5
:102D20004FF0FF30F2BD0000686A6C747A4C00000E
:102D30007072696E74665F733A20256E20646973E1
:102D4000616C6C6F776564007072696E74663A20AE
:102D500062616420256E20617267756D656E740016
:102D60007072696E74665F733A20626164202573C5
:102D700020617267756D656E7400000000000000D0
:102D80006E616E004E414E00696E6600494E46000F
:102D90003000F0B40246106895681318506803EBD1
:102DA0005004C00748BF4D44A3422DD013F8016B17
:102DB00016F0030004BF13F8010BC01C31090F29E2
:102DC00007D113F8011B0F3103E013F8017B05F85D
:102DD000017B401EF9D10029E6D013F8010BC6F3A0
:102DE0008106032E08BF13F8016B00EB062040425A
:102DF00028440026B71E8F421EBF10F8017B05F83D
:102E0000017B761CF6D1CFE7F0BC02F10C007047D5
:102E1000C9B202788A421AB11CBF10F8012FF9E733
:102E200018BF002070470268531C03601170704780
:102E300080B500B906A005490B681BB1222200210C
:102E4000984701E000F04AFD222002BD28760308E1
:102E5000636F6E73747261696E742068616E646C06
:102E600065723A20626164206D6573736167650005
:102E700000F10103810704D010F8011B820781B122
:102E8000FAD10268A2F10131914311F0803104BFFF
:102E900050F8042FF6E709BAB1FA81F100EBD1003E
:102EA000401CC01A70470000C9B2830706D0521EEA
:102EB00022D310F8013B9942F7D11FE0083A13D30F
:102EC00002F1040241EA012141EA014150F8043BC8
:102ED000121F21BF4B40A3F1013C2CEA030C1CF054
:102EE000803FF3D0C9B2001F083210F8013B521ED8
:102EF00028BF91EA030FF8D818BF0120401E704781
:102F000062B38B0708D0521E11F8013B00F8013B59
:102F100000F024808B07F6D1830740F0208000BFAB
:102F2000103A07D330B4B1E83810103AA0E838109E
:102F3000F9D230BC530724BFB1E80810A0E808104C
:102F400044BF51F8043B40F8043BD20724BF31F89A
:102F5000022B20F8022B44BF0B7803707047121F1E
:102F600017D35B0009D151F8043B20F8023B1B0C3E
:102F7000121F20F8023BF6D20BE051F8043B00F898
:102F8000013B1B0A20F8023B1B0C121F00F8013BFF
:102F9000F3D238BF121D521E24BF11F8013B00F8B6
:102FA000013BF8D87047000010B5144600F002F855
:102FB000226010BDC1F30A5343B14A0012F5001F4D
:102FC00028D2A3F2FE32A1EB0251704750EA410C25
:102FD00020D001F0004C31EA0C01B1FA81F204BFBB
:102FE000B0FA80F3D2180B3AB2F120032CBF00FAEA
:102FF00003F1914041EA0C013EBFC2F1200C20FADE
:103000000CF319439040524240F2FD33D21A01EBC7
:103010000351704700227047F0B540F2FF7581EA16
:10302000030C0CF0004C15EA11541DBF15EA1357A0
:10303000AC42AF42E5E0BC41C1F31301C3F313035B
:10304000801A994143F4801304D2641E0018494148
:1030500080185941C90241EA5051B1FBF3F603FB14
:103060001611A2FB0675D7EBC020A94102D2761E2D
:1030700080185941C90241EA5051B1FBF3FE03FBEC
:103080001E11A2FB0E75D7EBC020A94103D2AEF1F1
:10309000010E80185941890241EA9051760546EAAD
:1030A0008E2EB1FBF3F603FB1611A2FB0675D7EBD0
:1030B0008020A94102D2761E80185941C90241EAF6
:1030C00050514EEA060EB1FBF3F603FB1611A2FBBC
:1030D0000675D7EBC020A94102D2761E801859414F
:1030E000C90241EA5051B1FBF3F703FB1711A2FBF0
:1030F0000735D3EBC020A94167F100070CBF0042A0
:1031000047F0010766F3D5274FEA1E31B80814F5DA
:10311000806412DDBD0775F1004250EB0E5051EB9B
:10312000045111F5801F5CBF41EA0C01F0BD4CF069
:103130007F6141F0E0410020F0BDBD076D0840EA2D
:103140000E5041F48011D4F10104B4F120060ADAE2
:10315000C4F120060200E04001FA06F3E140184302
:10316000B24015430EE0342C13DCC6F1200445EACE
:1031700040056D0820FA06F2154321FA06F0A14039
:103180000D43002175F1004250F1000051EB0C019C
:10319000F0BD00205FEA0C01F0BDCFB992185B4191
:1031A000B3FA83F704BFB2FA82F6BF190B3FB7F147
:1031B00020062FBF02FA06F3BB40C7F1200622FA11
:1031C00006F638BF3343BA401CB1E419641E33E736
:1031D0007F4231F00041B1FA81F404BFB0FA80F6C9
:1031E000A4190B3CB4F120062FBF00FA06F1A14050
:1031F000C4F1200620FA06F638BF3143A0403C1B3C
:103200001AE7AC421ABF05EA1357AF4212E050EA80
:1032100041061CBF52EA4306BFE750EA4107304669
:1032200061461CBF41EA0551F0BD52EA430C08BF9C
:10323000C143F0BD00204FF4001616EB410F98BFBC
:1032400016EB430F08BF16EB410F24BFC14305E047
:1032500016EB430F0CBF61464CEA0551F0BD000070
:10326000400D40F21E4C40EAC120BCEB115C40F026
:10327000004003D48CF30701C84070476FEAE17047
:103280007047000050B1B0FA80F18840C91CC1F508
:103290008461090501EBD021400570470146704764
:1032A00070B491EA030F4FF0004540F1BF806B40CE
:1032B000841A71EB030604D26E40001BB14112194F
:1032C00073414FF4001C1CEB410F34BF7CEB4306F1
:1032D00083E00C0DA4EB1356362E00F37C80012EF8
:1032E00045EAC32341DC43EA525312BFD2029202A1
:1032F0005B08240545EAC12141EA5051D2EBC020C8
:10330000994125D407D1B0FA80F610FA06F162D0BF
:103310000020203608E0B1FA81F6B140C6F1200263
:1033200020FA02F21143B0404FEAF474B4EB465471
:1033300034F001064FEA74040AD8D6F50016760D6B
:1033400004F00044F04061FA06F25040F140484079
:10335000C00A40EA415021F0004128BF5FEA500511
:1033600050F1000044EBD12135E0DB0A45EAC121F0
:10337000C90AB6F120050EDD42EA0242120CC5F17F
:10338000200603FA06F6EB4042EA06056D42984134
:1033900061F100010DE062FA06F5F240554063FA72
:1033A00006FC82EA0C02F3405A406D42904161EB08
:1033B000030111F4801F05D1641E620502D06D0067
:1033C0004041494121F48011430875F1004350F117
:1033D000000041EB045170BC70471CEB410F15D24B
:1033E00023F0004352EA43060BD04FEA4C0CBCEBEF
:1033F000410F04D80C0D661E342EB7DDEBE7801AA2
:10340000994150EA410608BF0021E4E708BF1CEBE0
:10341000430F28BF6FF00001DDE7000070B491EAB0
:10342000030F4FF000457FF543AF6B40841A71EBFB
:10343000030603D2001BB141121973414FF4001C63
:103440001CEB410F34BF7CEB430442E00C0DA4EBBA
:103450001356352E4FDC45EAC323DB0A45EAC1216A
:10346000C912B6F120050DDD63FA05F6EB4086EAD8
:103470000305124218BF45F00105C01851F10001C3
:103480000CD213E062FA06F5F2405540F3415A407F
:10349000B340F3405A408018594107D349085FEAC6
:1034A00030005FEA350528BF45F0010501F58011C0
:1034B000420875F1004250F1000041EB04514E000A
:1034C00016F5001F70BC38BF70470020090D0905B4
:1034D00070471CEB410F10D252EA43060BD0BCEBF5
:1034E000410F05D80C0DAB43661E342EB6DD02E04D
:1034F000AB438018594170BC704770BC70470000E6
:1035000030B540F2FF7C1CEA11541DBF1CEA135574
:10351000644565453FE0641981EA030C6FF35F532E
:103520000CF0004C43F48013C90241F0004141EA21
:10353000505EC5021100A5FB020200284FF00000FA
:10354000EEFB01204FF00001E3FB052118BF42F024
:103550000102401800214941E3FB0E01A4F58064FB
:103560000D0302D292184041494154F1010470DD2B
:10357000450872F1004250F1000051EB0451A1F5F1
:10358000801102D441EA0C0130BD40F2FF7E4CEACA
:103590000E51002030BD0CEA1355644518BF654537
:1035A00081EA030C0CF0004C41D050EA410E1CBFE4
:1035B00052EA430E02E06146002030BD24422C4412
:1035C0001BD15FEA050EF6D0090302BF01460020B9
:1035D000AEF1140EB1FA81F5AEEB050401FA05FE69
:1035E0000C35C5F1200100FA05F5C8404EEA000E81
:1035F0006FF35F5343F480139CE733F00043B3FA57
:1036000083F504BFB2FA82FE75440B3D641BB5F12D
:10361000200E2FBF02FA0EF3AB40C5F1200E22FAA6
:103620000EFE38BF43EA0E03AA40641C7CE750EA52
:10363000410E14BF52EA430E6FF000014FF4001523
:1036400015EB430F8EBF194615EB410F9DE7B4D81C
:1036500030BDD4F10104B4F120050FDAC4F1200526
:10366000520828BF42F0010210FA05FE01FA05F5E2
:103670007244E2BFE0402843E1400FE0352C9ADC81
:10368000C5F1200452EA400220FA05F218BF42F0C8
:10369000010231FA05F0A1400A43002172F1004213
:1036A00050F1000051EB0C0130BD0000BBBBE1B19B
:1036B000B2F5803F80F07E80022A1ED98C46B1FB95
:1036C000F2F102FB11C31B0443EA1043B3FBF2FC0B
:1036D00002FB1C3380B240EA0343B3FBF2F002FB6F
:1036E000103240EA0C4000237047022A05D9844674
:1036F000B0FBF2F002FB10C270474AB105D100F0F6
:10370000010249085FEA3000704700220023704739
:1037100000F0E8B80B000200002100207047904242
:1037200071EB030CF6D3B3F5803F2FD2F0B5B3FAAB
:1037300083F7B1FA81F4A7F10F0E3D1B5340CEF190
:10374000200602FA0EF2F3415340B5F10F0746D8B6
:103750000F3C2C444140C4F12006A040F1414140BF
:10376000B1FBF3F603FB1611A2FB0645001BA941B2
:1037700002D2761E8018594180EA010221FA0EF326
:1037800062FA0EF200215A403046F0BD30B4B1FB6F
:10379000F3FC03FB1C11A2FB0C45001BA94103D247
:1037A000ACF1010C8018594130BC02460B46604612
:1037B00000217047B2F1807F65D3F0B5B2FA82F78D
:1037C000B1FA81F4C7F10F063D1B22FA06F307F1A7
:1037D000110EF24120355A40B5F10F07B8D94140DA
:1037E000C4F12006A040F1414140B1FBF3FC03FBD2
:1037F0001C11A2FB0C45001BA94103D2BCF1010C1A
:10380000801859410F2F12D30F3FC90341EA50418D
:10381000B1FBF3F603FB1611A2FB0645D4EBC03057
:10382000A94102D2761E8018594146EACC3C07B322
:103830004140C7F12006B840F1414140B1FBF3F6E9
:1038400003FB1611A2FB0645001BA94102D2761EFE
:103850008018594180EA010221FA0EF3C7F12004D1
:1038600062FA0EF20CFA07F05A402CFA04F13043D7
:10387000F0BD80EA010221FA0EF3002162FA0EF295
:1038800060465A40F0BD8C46B1FBF2F102FB11C319
:103890001B0243EA1063B3FBF2FC02FB1C331B0266
:1038A0004CEA002043EA1063B3FBF2FC02FB1C333A
:1038B0001B024CEA002043EA1063B3FBF2FC02FB5C
:1038C0001C331B024CEA002043EA1063B3FBF2FCFA
:1038D00002FB1C324CEA002000237047012000F05C
:1038E00003B800007047000080B5AFF30080024AC3
:1038F00011001820ABBEFBE72600020080B50100D6
:103900000220DFF800271060C9B2022001F057F84A
:103910000220DFF80017086001BD2DE9F04706001E
:1039200015001F00DFF8E0863000B8F8002080B2F4
:10393000904201D2012000E000200C00DFF8CC967C
:10394000AF224946C0B201F029FDDFF8C4A620002D
:10395000BAF8001080B2884201D2012000E00020B5
:10396000B0224946C0B201F019FD2800B8F8001095
:1039700080B2884201D2012000E00020B1224946F5
:10398000C0B201F00BFD3800BAF8001080B28842D6
:1039900001D2012000E00020B2224946C0B201F06D
:1039A000FDFCDFF8740690F900000028012803D917
:1039B000801E01282FD95CE02A20FFF79FFF0021FD
:1039C000022000F0FCFFB61C3100C9B2022000F05A
:1039D000F6FF0021022000F0F2FFAD1C2900C9B261
:1039E000022000F0ECFF2B20FFF788FF00210220CF
:1039F00000F0E5FF641C2100C9B2022000F0DFFFE7
:103A00000021022000F0DBFF7F1C3900C9B2022038
:103A100000F0D5FF2DE02A20FFF770FF00210220E3
:103A200000F0CDFF761C3100C9B2022000F0C7FFC4
:103A30000021022000F0C3FF6D1C2900C9B2022042
:103A400000F0BDFF2B20FFF759FF0021022000F0FE
:103A5000B6FFA41C2100C9B2022000F0B0FF002173
:103A6000022000F0ACFFBF1C3900C9B2022000F0F8
:103A7000A6FF2C20FFF742FFBDE8F08700B585B018
:103A8000684601F0B9FC0120ADF80000DFF87805C8
:103A90000088ADF80200DFF878050088ADF8040072
:103AA000DFF8D00690F90000002803D002280FD0DC
:103AB00007D30DE006208DF8060008208DF80700DA
:103AC00006E008208DF8060010208DF80700FFE7BB
:103AD0000FF2C92003900FF211000490684601F024
:103AE0009BFC05B000BD000070B5D0B000200020E8
:103AF0000820DFF878160860DFF80C45DFF810556D
:103B00002888431E9BB22088421E92B200210020CA
:103B1000FFF703FF002008E0DFF8541609886A4623
:103B200003009BB222F81310401C0100228889B2C6
:103B30009142F1D3002605E022886946022000F078
:103B4000A3FF761C3000298880B28842F4D3082075
:103B5000DFF82416086050B070BDDFF8BC140870A0
:103B600091F900000028012803D9801E012809D9F5
:103B700010E08020DFF890140880A020DFF8901477
:103B8000088007E0A020DFF8801408808020DFF89C
:103B9000801408807047DFF8E4251080DFF8D00536
:103BA00001807047F8B5D8B005000E001400280059
:103BB000DFF85414098880B2884201D2012000E065
:103BC0000020DFF8487440F2CB123900C0B201F097
:103BD000E5FB3000DFF83814098880B2884201D252
:103BE000012000E000204FF4E6723900C0B201F07D
:103BF000D5FB002000200820DFF870150860DFF8F2
:103C0000740590F90000002804D0022800F0C0805C
:103C100047D3BDE0F31D9BB26A1D92B2310089B259
:103C2000280080B2FFF779FE002000E0401C010070
:103C3000C9B206292FDA0621DFF8442523005BB23A
:103C400013FB01F31A440300DBB21A4412F8C02C30
:103C500000230BE040AD1E00F6B24E4356FA80F64C
:103C6000DFF80C753F8825F8167010E01D00EDB2E6
:103C7000082DDBDAD507EDD540AD1E00F6B24E4378
:103C800056FA80F6DFF8F4743F8825F81670D2B241
:103C900052085B1CEAE7302240A9022000F0F4FE43
:103CA00076E016F10F039BB2EA1D92B2310089B2A1
:103CB000280080B2FFF731FE002000E0401C010028
:103CC000C9B208295EDADFF8BC24210049B2090133
:103CD00011440300DBB21944B1F5007109782300E7
:103CE0005BB21B011A440300DBB21A44B2F5FC724A
:103CF000127800231BE06D461E00F6B2F60056FA5D
:103D000080F6DFF86C743F8825F816700CE0CD075C
:103D1000F1D56D461E00F6B2F60056FA80F6DFF8D1
:103D20005C743F8825F81670C9B249085B1C1D00F9
:103D3000EDB2082DEBDB00210DE06B460D00EDB27E
:103D4000ED0055FA80F503EB4503DFF824542D8888
:103D5000A3F8805012E00B00DBB2082BAEDAD307D9
:103D6000EBD56B460D00EDB2ED0055FA80F503EB97
:103D70004503DFF808542D88A3F88050D2B25208CA
:103D8000491CE8E780226946022000F07DFEFFE73B
:103D90000820DFF8E413086059B0F0BDF8B504005E
:103DA0000E0015002000DFF86012098880B28842FA
:103DB00001D2012000E00020DFF8507240F2222200
:103DC0003900C0B201F0EAFA3000DFF84412098885
:103DD00080B2884201D2012000E0002040F223227C
:103DE0003900C0B201F0DAFA00270EE00CE038002A
:103DF00080B22A56310089B2380080B2C00010FA71
:103E000084F080B2FFF7CEFE7F1C380080B22856C7
:103E1000002818D0DFF8700390F90000002803D0C4
:103E20000228E3D0E3D3EFE7380080B22A5631000E
:103E300089B23B009BB20620434313FA84F080B260
:103E4000FFF7B0FEE0E7F1BD2DE9FE4307001600E5
:103E50001D0038006C4A128880B2904201D20120C5
:103E600000E000200C00DFF8A4814FF410724146FE
:103E7000C0B201F093FA2000DFF87016098880B212
:103E8000884201D2012000E0002040F24122414658
:103E9000C0B201F083FA2800C0B2002801D001208E
:103EA00000E0002040F242224146C0B201F076FA22
:103EB0002800C0B20B2801DA012000E0002040F207
:103EC00043224146C0B201F069FA5FF001080C21BB
:103ED0000022E946484601F0D9FA2900C9B2491C36
:103EE0002022E946484601F0D1FA2800C0B20A284B
:103EF0000CDA03E00A2000FB08F86D1E2800C0B2AF
:103F00000028F7D196FBF8F008FB106631006846F0
:103F100001F0F0FA6A46210089B2380080B2FFF75A
:103F20003DFFBDE8F7832DE9FE43070016001D00A5
:103F30003800354A128880B2904201D2012000E058
:103F400000200C00DFF8C48040F267224146C0B276
:103F500001F024FA2000DFF89415098880B2884225
:103F600001D2012000E000204FF41A724146C0B295
:103F700001F014FA2800C0B2002801D0012000E0AE
:103F8000002040F269224146C0B201F007FA280041
:103F9000C0B20B2801DA012000E0002040F26A22C2
:103FA0004146C0B201F0FAF95FF001080C2100228D
:103FB000E946484601F06AFA2900C9B22022E946DA
:103FC000484601F063FA2800C0B20A280CDA03E080
:103FD0000A2000FB08F86D1E2800C0B20028F7D1A7
:103FE000B6FBF8F008FB10663100684601F0C5FA30
:103FF0006A46210089B2380080B2FFF7CFFEBDE8E3
:10400000F7830000040631407E65020840B20810C4
:104010008065020808063140537603082DE9F04711
:10402000D0B0804614009A464046DFF8C424128877
:1040300080B2904201D2012000E000200F00DFF8A2
:10404000B49440F2F3224946C0B201F0A7F9380017
:10405000DFF89814098880B2884201D2012000E07C
:1040600000204FF43D724946C0B201F097F9002C90
:1040700001D0012000E000205A9D599E40F2F52217
:104080004946C0B201F08AF900200020002000203B
:10409000082036490860E819431E9BB216EB080059
:1040A000421E92B2390089B2404680B2FFF735FC19
:1040B0005FF00009589FDDF86C8107E0320092B292
:1040C0006946022000F0E0FC19F10109280080B2E5
:1040D000814544D2380080B200FB09F0290089B242
:1040E000B0FBF1F1504680B241432144002210E080
:1040F0004FF6FF706B4623F8120009E04346DBB22F
:1041000080B29BB29842F3D200206B4623F8120093
:10411000521C300080B28242D0D2504680B200FBA6
:1041200002F033009BB2B0FBF3F0085C4346DBB215
:10413000002BE3D10300DBB2DB08DBB2DB028446F9
:104140005FFA8CFC5FEA9C0C5FFA8CFC53EA4C1320
:10415000C0F3C4000343684620F81230D8E70820B3
:10416000DFF89413086050B0BDE8F0878406314052
:104170008465020887650208880631408265020866
:104180009CA7081068940810876502081FB50420D2
:10419000029004200190022000900223DA4A0021BC
:1041A000022000F04BFE032300220121612001F0D8
:1041B00096FA032300220121602001F090FA0323E4
:1041C000012201216B2001F08AFA0323012201213F
:1041D000682001F084FACD4C94F90000FFF7BDFC93
:1041E000C7480188C7480088FFF7D5FC0120C849A7
:1041F00008600A2001F040FB0120C64908607820D1
:1042000001F03AFB0820BD4908601120FFF776FB5A
:10421000782001F031FBB120FFF770FB0121022073
:1042200000F0CDFB2C21022000F0C9FB2D21022043
:1042300000F0C5FBB220FFF761FB0121022000F076
:10424000BEFB2C21022000F0BAFB2D21022000F041
:10425000B6FBB320FFF752FB0121022000F0AFFBB9
:104260002C21022000F0ABFB2D21022000F0A7FB47
:104270000121022000F0A3FB2C21022000F09FFB73
:104280002D21022000F09BFBB420FFF737FB072114
:10429000022000F094FBC020FFF730FBA221022097
:1042A00000F08DFB0221022000F089FB8421022016
:1042B00000F085FBC120FFF721FBC521022000F0A3
:1042C0007EFBC220FFF71AFB0A21022000F077FBD9
:1042D0000021022000F073FBC320FFF70FFB8A21AF
:1042E000022000F06CFB2A21022000F068FBC420B1
:1042F000FFF704FB8A21022000F061FBEE2102207F
:1043000000F05DFBC520FFF7F9FA0E21022000F056
:1043100056FB3620FFF7F2FA94F90000002805D08A
:1043200002280DD007D303280FD012E0C0210220AD
:1043300000F045FB0DE00021022000F040FB08E00A
:10434000A021022000F03BFB03E06021022000F0EE
:1043500036FBE020FFF7D2FA0F21022000F02FFBFE
:104360001A21022000F02BFB0F21022000F027FB76
:104370001821022000F023FB2F21022000F01FFB58
:104380002821022000F01BFB2021022000F017FB57
:104390002221022000F013FB1F21022000F00FFB5E
:1043A0001B21022000F00BFB2321022000F007FB61
:1043B0003721022000F003FB0021022000F0FFFA69
:1043C0000721022000F0FBFA0221022000F0F7FA98
:1043D0001021022000F0F3FAE120FFF78FFA0F21FD
:1043E000022000F0ECFA1B21022000F0E8FA0F2175
:1043F000022000F0E4FA1721022000F0E0FA332155
:10440000022000F0DCFA2C21022000F0D8FA292149
:10441000022000F0D4FA2E21022000F0D0FA302140
:10442000022000F0CCFA3021022000F0C8FA392135
:10443000022000F0C4FA3F21022000F0C0FA00215F
:10444000022000F0BCFA0721022000F0B8FA032194
:10445000022000F0B4FA1021022000F0B0FA2A2065
:10446000FFF74CFA0021022000F0A9FA02210220F5
:1044700000F0A5FA0021022000F0A1FA822102201A
:1044800000F09DFA2B20FFF739FA0021022000F0FE
:1044900096FA0321022000F092FA0021022000F097
:1044A0008EFA8321022000F08AFAF020FFF726FA24
:1044B0000121022000F083FAF620FFF71FFA002105
:1044C000022000F07CFA3A20FFF718FA05210220BA
:1044D00000F075FA2920FFF711FA08200649086054
:1044E000FFF702FBFFF7CAFA1FBD00008065020854
:1044F0007E65020840B208108806314084063140CB
:10450000846502088265020880C3C90153760308E6
:104510000406314008063140D0F80803C005C00D3C
:10452000704710F541710A6852F480320A6010F544
:1045300041710A6832F480320A60D0F8040370478F
:10454000C0F840127047D0F80802C005C00D70478F
:10455000D0F80802C0F3C030704738B50500280015
:10456000FFF7F1FF04002800FFF7F2FF0419002C09
:1045700001D1012000E00020C0B232BD0068C0F3CC
:104580008130002801D1802000E040207047016880
:1045900051F00041016070472030026861F39B6276
:1045A0000260704780B5FFF7B7FF02BD80B5FFF727
:1045B000B8FF01BD40B2002804D0012808D003286C
:1045C0000BD00FE0202901D3012000E0002070472C
:1045D000102901D30120FAE7F8E7082901D30120C7
:1045E000F5E7F3E70120F2E7F8B507000D00160044
:1045F0001C002900380040B2FFF7DCFF012801D180
:10460000012017E0380040B2022816D1B6F5803FED
:1046100011D2202C0FD2DFF8080700EB85010A68C1
:1046200066F317220A6000EB8500016864F3C70196
:1046300001600020F2BD0120FCE77FB2032F17D1FB
:10464000B6F1807F12D2202C10D2DFF8D80600EB12
:1046500085010A6802F0FF0252EA06220A6000EBB6
:104660008500016864F3C7010160E2E70120E1E72A
:104670000120DFE770B504000D00160031002800AE
:1046800040B2FFF797FF012801D101200EE0DFF8CB
:104690009816200040B251F820006DB265F3092051
:1046A00066F3070064B241F82400002070BD38B5FD
:1046B00004000D002900200040B2FFF77BFF012815
:1046C00001D1012010E0DFF86416086850F00040C6
:1046D00050F0407050F47F0064B264F3092065F339
:1046E000070008600868002032BD0100C02049B200
:1046F000002905D0022907D004D3032906D006E0FB
:10470000322004E03A2002E06A2000E07220C0B2C9
:1047100070470100C02049B2002905D0022907D006
:1047200004D3032906D006E0312004E0392002E05A
:10473000692000E07120C0B270470100C02049B27A
:10474000002906D0022908D005D3042909D006D3B0
:1047500007E0302005E0382003E0682001E0702009
:10476000FFE7C0B270470100C02049B2002906D05F
:10477000022908D005D3042909D006D307E0332045
:1047800005E0582003E06B2001E0BF20FFE7C0B246
:1047900070470100002049B2002905D0022907D046
:1047A00004D3032906D006E0132004E0132002E01E
:1047B000132000E0132040B270470100002049B2EE
:1047C000002905D0022907D004D3032906D006E02A
:1047D000132004E0132002E0132000E0132040B275
:1047E00070470100002049B2002906D0022908D0F4
:1047F00005D3042909D006D307E0132005E01320D0
:1048000003E0132001E01320FFE740B270470100EE
:10481000002049B2002906D0022908D005D3042976
:1048200009D006D307E0132005E0002003E01320A1
:1048300001E00020FFE740B27047010049B20029C3
:1048400005D0022907D004D3032906D006E0222090
:1048500004E0232002E0212000E0202040B2704745
:1048600030B4DFF8CC2403005BB2D35C0C00E4B2BC
:10487000A34200F0A2800B00DBB2082B02D0102B69
:1048800047D098E0DFF8A435040064B253F8244020
:10489000246834F4404405006DB253F825502C6070
:1048A000040064B253F82440D4F80042640964015F
:1048B00005006DB253F82550C5F80042040064B2FB
:1048C00053F82440D4F8004254F0070405006DB2B8
:1048D00053F82550C5F80042040064B253F8244050
:1048E000D4F800436409640105006DB253F8255003
:1048F000C5F80043040064B253F82440D4F80043E0
:1049000054F0070405006DB253F82530C3F8004396
:1049100051E0DFF81835040064B253F824402468ED
:1049200034F4404405006DB253F825502C60040067
:1049300064B253F82440246854F4804405006DB2F6
:1049400053F825502C60040064B253F82440D4F886
:1049500000426409640105006DB253F82550C5F8A2
:104960000042040064B253F82440D4F8004254F0EA
:104970000F0405006DB253F82550C5F8004204003D
:1049800064B253F82440D4F800436409640105007C
:104990006DB253F82550C5F80043040064B253F8D3
:1049A0002440D4F8004354F00F0405006DB253F8CE
:1049B0002530C3F8004340B2115430BC7047F8B5FD
:1049C00004000E000821200040B2FFF749FFDFF885
:1049D0006054200040B22856042810D0200040B275
:1049E0002856C0B2C010DFF84C1411EBC0110120E2
:1049F000220052B2AA5C12F0070290400860DFF871
:104A00002C74200040B257F82000FFF7CFFDF6B21B
:104A10003100200040B257F82000FFF791FD200040
:104A200040B257F82000FFF7A9FD0600200040B271
:104A300057F82000FFF787FD8642F0D0200040B2F3
:104A400057F82000FFF789FD0028F7D0200040B27A
:104A500057F82000FFF7A6FD0028F7D0200040B24D
:104A6000285604280FD0200040B22856C0B2C010EB
:104A7000DFF8C41311EBC011012064B22A5D12F0FB
:104A8000070290400860F1BD2DE9F84307000D00D2
:104A900014001021380040B2FFF7E2FEDFF8906307
:104AA000380040B23056042810D0380040B230569A
:104AB000C0B2C010DFF87C1311EBC01101203A0026
:104AC00052B2B25C12F0070290400860DFF85C83DB
:104AD0002988380040B258F82000FFF731FDAD1C9E
:104AE000380040B258F82000FFF748FD81463800F2
:104AF00040B258F82000FFF726FD8145F0D0641E33
:104B0000002CE3D1380040B258F82000FFF725FD13
:104B10000028F7D0380040B2305604280FD03800B3
:104B200040B23056C0B2C010DFF80C1311EBC01108
:104B300001207FB2F25D12F0070290400860BDE8EC
:104B4000F1832DE9F04104000F0016000821200038
:104B500040B2FFF785FEDFF8D852200040B2285659
:104B6000042810D0200040B22856C0B2C010DFF890
:104B7000C41211EBC0110120220052B2AA5C12F043
:104B8000070290400860DFF8A482FFB239002000DD
:104B900040B258F82000FFF7D3FC200040B258F88C
:104BA0002000FFF7EBFC0700200040B258F820007F
:104BB000FFF7C9FC8742F0D0F6B23100200040B2C6
:104BC00058F82000FFF7BCFC200040B258F8200045
:104BD000FFF7D4FC0600200040B258F82000FFF791
:104BE000B2FC8642F0D0200040B258F82000FFF717
:104BF000B4FC0028F7D0200040B258F82000406AEA
:104C0000C007F8D4200040B2285604280FD0200056
:104C100040B22856C0B2C010DFF81C1211EBC01110
:104C2000012064B22A5D12F0070290400860BDE8DE
:104C3000F0812DE9F8430600894615001C00082183
:104C4000300040B2FFF70CFEDFF8E471300040B2F4
:104C50003856042810D0300040B23856C0B2C010C8
:104C6000DFF8D01111EBC0110120320052B2BA5C52
:104C700012F0070290400860DFF8B0815FFA89F90E
:104C80004946300040B258F82000FFF759FC300088
:104C900040B258F82000FFF771FC8146300040B266
:104CA00058F82000FFF74FFC8145F0D029783000FC
:104CB00040B258F82000FFF743FC6D1C300040B2B2
:104CC00058F82000FFF75AFC8146300040B258F8EF
:104CD0002000FFF738FC8145F0D0641E002CE5D1A0
:104CE000300040B258F82000FFF737FC0028F7D01A
:104CF000300040B2385604280FD0300040B2385649
:104D0000C0B2C010DFF8301111EBC011012076B233
:104D1000BA5D12F0070290400860BDE8F183000020
:104D200000180040001C0040000C0040000400403F
:104D3000107603082DE9F84380460D0016001C008C
:104D40000821404640B2FFF78BFD394F404640B244
:104D5000385604280FD0404640B23856C0B2C01072
:104D6000344911EBC0110120424652B2BA5C12F034
:104D7000070290400860DFF8B490EDB22900404689
:104D800040B259F82000FFF7DBFB404640B259F82B
:104D90002000FFF7E2FB0028F7D0404640B259F868
:104DA0002000FFF7FFFB0028F7D0404640B259F83B
:104DB0002000FFF7FBFB0021404640B259F82000DD
:104DC000FFF7BEFB404640B259F82000FFF7C5FB95
:104DD0000028F7D0404640B259F82000FFF7E2FB28
:104DE0000028F7D0404640B259F82000D0F84003E0
:104DF0003070761C641E002CDDD1404640B238561F
:104E0000042810D0404640B23856C0B2C0100A49FB
:104E100011EBC01101204FFA88F817F8082012F0A2
:104E2000070290400860BDE8F18300005865020861
:104E30000C76030804003140080031402DE9F84F9A
:104E40009CB004000D001E00920000238E4801213A
:104E5000FEF72CFC070034210022E846404600F013
:104E600015FB3C2100220DF13408404600F00EFBFA
:104E700020003100C0B2C9B2884201D1012000E057
:104E800000209DF998B0DFF8049240F2AB32494619
:104E9000C0B200F083FA30005946C0B2C9B28842AD
:104EA00001D1012000E000209DF99C804FF46B723D
:104EB0004946C0B200F072FA06200190584640B24E
:104EC000FFF77BFC8DF80800584640B2FFF721FC45
:104ED00081465FF0080A584640B2FFF71AFCDFF837
:104EE000B0B16A4699FBFAF10AFB11994946C0B282
:104EF000C010C001584400F0D4FD062001903000DD
:104F000040B2FFF746FC8DF80800300040B2FFF7D2
:104F1000ECFB81465FF0080A300040B2FFF7E5FB8A
:104F20006A4699FBFAF10AFB11994946C0B2C010D2
:104F3000C001584400F0B5FD404640B204281ED0E0
:104F400008200190404640B2FFF74BFC8DF8080066
:104F5000404640B2FFF7F1FB06005FF0080940460B
:104F600040B2FFF7EAFB6A4696FBF9F109FB1166CE
:104F70003100C0B2C010C001584400F092FD9DF94C
:104F8000A060300040B204281ED0062001903000FE
:104F900040B2FFF73CFC8DF80800300040B2FFF74C
:104FA000E2FB80465FF00809300040B2FFF7DBFB10
:104FB0006A4698FBF9F109FB11884146C0B2C0105E
:104FC000C001584400F06DFD200040B2FFF735FCF1
:104FD0002200D2B2521C032140B2FFF74BFB17F064
:104FE0001F03C7F357122100C9B2491C0320FFF762
:104FF000FBFA2100C9B2491C0320FFF758FB6DB230
:10500000002D05D0022D09D005D3032D09D00AE0CB
:1050100000200F9007E001200F9004E002200F9085
:1050200001E003200F9001200D9000200E9004203D
:105030001090082011900820129001208DF84C004B
:1050400001208DF84F000F4D00220DA9200040B225
:1050500055F8200000F066FD0021200040B255F810
:105060002000FFF799FA200040B255F82000FFF722
:105070008EFA034864B206551DB0BDE8F08F0000FB
:105080000C7603085865020800002D313CB3081067
:105090000000314082B000200190002000900020EC
:1050A000019009E00098401C00900098B0F5005F66
:1050B000F8D30198401C01900198B0F5805F02D2AE
:1050C00000200090F1E702B0704780B50100002099
:1050D00000F052FE01BD2DE9F043ADF5137D070050
:1050E000884616001C000020ADF802000020ADF834
:1050F0000000002002900020ADF804000020ADF870
:1051000006004046FDF7B4FE0290DFF850532888B1
:10511000002801D028698047DFF844030078002880
:1051200000F038812888002800F01681BDF90600BB
:10513000411CADF806103A00010089B20020EB686E
:10514000984747464046FDF793FE02906888A97944
:1051500090FBF1F0ADF804003800471C90F9000016
:105160000028F9D10020ADF8000010E07F1E97F96B
:1051700000002F2803D097F900005C2804D1BDF867
:105180000000401CADF800000298401E0290BDF8DF
:105190000000022802DA02980028E7D502980028C9
:1051A00006D47A1CDFF8BC1253A800F0F9FD10E019
:1051B000BDF80000002806D13A00DFF8AC1253A871
:1051C00000F0EEFD05E03A00DFF8981253A800F079
:1051D000E7FD0020ADF8020042E0BDF80010BDF888
:1051E0000020BDF8023053AF9BB2BDF90400434329
:1051F00013FA82F0385C43AA89B25054BDF800001B
:10520000401CADF80000BDF8000080B2BDF90410EC
:1052100088420EDA53A8FDF72BFEBDF80020BDF83A
:1052200002309BB2BDF904104B4313FA82F188425D
:10523000D3D2002043A9BDF800208854BDF9060050
:10524000411CADF8061043AAE97911FB00F189B2BF
:105250000020EB689847BDF80200401CADF8020042
:10526000BDF8027053A8FDF703FEBDF90410B0FBB2
:10527000F1F0401CBFB2874203D20020ADF800001D
:10528000C1E73200794953A800F08AFDBDF9060054
:10529000411CADF8061053AAE97911FB00F189B25F
:1052A0000020EB689847002C74D00020ADF8020075
:1052B00041E0BDF80010BDF80020BDF802309BB2FF
:1052C000BDF90400434313FA82F0205C43AA89B27B
:1052D0005054BDF80000401CADF80000BDF80000BF
:1052E00080B2BDF9041088420EDA2000FDF7C0FD3F
:1052F000BDF80020BDF802309BB2BDF904104B434D
:1053000013FA82F18842D4D2002043A9BDF80020CC
:105310008854BDF90600411CADF8061043AAE9798E
:1053200011FB00F189B20020EB689847BDF802003C
:10533000401CADF80200BDF802602000FDF798FDAA
:10534000BDF90410B0FBF1F0401CB6B2864221D288
:105350000020ADF80000C1E74FF4807100220DF18C
:105360000C09484600F092F83800A9688847002CDC
:1053700007D00094330042463D4903A800F010FDD9
:1053800005E0330042463B4903A800F009FD03A8AD
:10539000A96888470DF5137DBDE8F08338B50C008A
:1053A0001500C0B2002803D133480078002800D18E
:1053B00031BD32490878002800D0FEE70878401C4B
:1053C000087000F057FD00232A0021002C48FFF749
:1053D00082FEFFF75FFEF6E710B514001A00C0B2B8
:1053E000002808D11E480078002804D00B002100B6
:1053F0002448FFF770FE10BD002101804FF6FF71B9
:1054000041808180FF218171C17100218160002173
:10541000C160002101617047104902880A804288FA
:105420004A8082888A8082798A71C279CA71826848
:105430008A60C268CA600069086101200849087072
:10544000704700B585B06846FFF7D6FF0E4802905A
:105450006846FFF7E1FF05B000BD00007075030866
:1054600050760308CCB50810ACB50810D8B50810B4
:10547000C4B408104CB508108665020851760308BC
:10548000BCB50810E4B50810CB50081062F30F2229
:1054900062F31F42401810F0030308D0C91A1FD34B
:1054A000DB0748BF00F8012D28BF20F8022D1300AC
:1054B00030B414461546103928BF20E93C00FAD80C
:1054C000490728BF20E90C0048BF40F8042D890097
:1054D00028BF20F8022D48BF00F8012D30BC7047CE
:1054E000C91818BF00F8012DCB0728BF00F8012DFF
:1054F0007047000038B584B005000C00002D01D0C5
:10550000012000E000209F22DFF8E010C0B2FFF78A
:1055100045FF00200021002D2DD0002C04D52D2189
:1055200029706D1C644206E0002C04D130202870E4
:1055300021E049420AE0002C19D00A2194FBF1F243
:1055400001FB12410200501C0029F2D46B46D2B27A
:1055500099540A2194FBF1F4EDE769460200D2B2B6
:10556000114411F9011C303129706D1C401E0100DD
:10557000C9B20029F1D105B030BD38B584B00500FD
:105580000C00002D01D0012000E00020EB22DFF80C
:105590005C10C0B2FFF702FF0020002D22D0002CCB
:1055A0000FD1302028701DE00A21B4FBF1F201FB7D
:1055B00012416A460300DBB2D154401C0A21B4FBFD
:1055C000F1F4002CF0D10100C9B200290AD06946DB
:1055D0000200D2B2114411F8011C303129706D1C47
:1055E000401EF0E705B030BD00000000C0B108105B
:1055F0000069C84010F001007047012212FA01F161
:1056000081607047012212FA01F14160704710B4C5
:105610008900436C0F248C40A34312F00F0212FA4E
:1056200001F11943416410BC704780B5C9B200292B
:105630000ED00100C9B2082291FBF2F302FB131154
:10564000494AC0B2C010C0011044FFF7D6FF0DE0B8
:105650000100C9B2082291FBF2F302FB1311424A86
:10566000C0B2C010C0011044FFF7CCFF01BD80B52F
:105670000100C9B2082291FBF2F302FB13113A4A6E
:10568000C0B2C010C0011044FFF7B2FFC0B202BDEB
:1056900010B549B200290BD152B2002A02D0022A19
:1056A00002D003E00F220BE00B2209E00A2207E000
:1056B00052B2042A01D10C2200E00E2212F007029D
:1056C0000100C9B2082391FBF3F403FB1411264B2C
:1056D000C0B2C010C0011844FFF799FF10BD2DE9FA
:1056E000F8418DB004000E0015001F003421002287
:1056F000E8464046FFF7CAFE76B2002E0ED17FB2D2
:10570000002F02D0022F03D005E00F2001900DE002
:10571000082001900AE00820019007E07FB2042FE2
:1057200002D10F20019001E00E2001902000C0B2B4
:10573000C0280FD02100C9B208206A4691FBF0F3BF
:1057400000FB131108482300DBB2DB10DB01184417
:1057500000F0A7F92900C9B22000C0B2FFF765FF29
:105760000EB0BDE8F08100000000314040B20028DA
:1057700004D0012808D003280BD00FE0202901D342
:10578000012000E000207047102901D30120FAE732
:10579000F8E7082901D30120F5E7F3E70120F2E754
:1057A00070B505000E0014006400641C3100280070
:1057B00040B2FFF7DBFF012801D101200EE02800F5
:1057C00040B200280DD1B4F5807F08D2674800EBC5
:1057D0008600016864F30F210160002070BD012084
:1057E000FCE76DB2012D0CD1B4F5803F07D26048C3
:1057F00000EB8600016864F317210160EDE70120EA
:10580000ECE70120EAE770B504000D001600310056
:10581000280040B2FFF7AAFF012801D101200DE0C6
:105820005449200040B251F820006DB265F30920C0
:1058300066F3070064B241F82400002070BD38B55B
:1058400004000D002900200040B2FFF78FFF01285F
:1058500001D101200FE04849086850F0004050F0A5
:10586000407050F47F0064B264F3092065F30700D0
:1058700008600868002032BDF8B504004FF4FA5003
:1058800044433E4D3E4E00212878C001304400F094
:10589000E6FB14E02878C001304400F0E2FBB84297
:1058A000F8D3384F3C192878C001304400F0D9FBB8
:1058B0003F1839002878C001304400F0D0FB4CF28A
:1058C0005137BC42E6D22878C001304400F0C9FB11
:1058D0008442F8D2F1BD38B594B0502100226C4614
:1058E0002000FFF7D3FD00220121274890F9000096
:1058F000FFF789FF092200210120FFF751FF002156
:105900000120FFF79CFF5FF0FF30009000208DF832
:10591000040000208DF8050000208DF8060000200E
:105920008DF8080003208DF844000120129001201A
:105930008DF80700114C124D69462078C0012844AB
:1059400000F0C0FA2078C001284400F083FB002159
:105950002078C001284400F082FB2078C001284450
:1059600000F08FFB15B030BD0000000000100040BB
:1059700000140040000C004000040040896502084B
:1059800000003940B03CFFFF8865020830B4624B2C
:105990001818C009614C14EB001404290DD22368B7
:1059A0001F25C8008540AB4352B212F01F02C90048
:1059B00012FA01F1194321600CE0091F63681F25E9
:1059C000C8008540AB4352B212F01F02C9008A40A2
:1059D0001A43626030BC7047002A04D1012212FAD7
:1059E00001F1416003E0012212FA01F18160704788
:1059F00010B48900436C0F248C40A34312F00F02B3
:105A000012FA01F11943416410BC704710B4836C61
:105A100001248C40A34312F0010212FA01F1194350
:105A2000816410BC704710B4C36C01248C40A34344
:105A300012F0010212FA01F11943C16410BC70475F
:105A400010B449001031C36C03248C40A34312F0FE
:105A5000030212FA01F11943C16410BC7047426994
:105A6000012212FA01F141614069704710B4836963
:105A700001248C40A34312F0010212FA01F11943F0
:105A8000816110BC704710B44900036C03248C4042
:105A9000A34312F0030212FA01F11943016410BC8E
:105AA0007047F8B505000E0014000027002D2FD018
:105AB000002C2DD0226831002800FFF78DFF94F9CB
:105AC000082031002800FFF761FF626931002800DB
:105AD000FFF79CFFA26931002800FFF7A4FFE269ED
